:1000000030EF08F00000000000EF00F000000000FA
:0A0010000000000000000000F3D71C
:10001C003A0E0C6E230E0D6E0D2EFED70C2EFCD749
:02002C001200C0
:0C002E00020E0D6E0D2EFED70000120019
:0A003A00850E0D6E0D2EFED712008C
:100044000B840BAE2DEF00F0010E036E026A016A01
:0A005400006A0A360232FF0E1200A5
:08005E000AAE029E000E120022
:0E006600026A016A006A086A036A000E12004C
:10007400086A096A100E0C6E0134083609360450F9
:10008400085E0550D8A0053C095ED8B007D00450DE
:1000940008260550D8B0053C0926D890003601360C
:0600A4000C2EEAD7120049
:1000AA000001ACBF02D0829601D08286ACBD02D0DC
:1000BA00829401D08284ACBB02D0829201D0828227
:1000CA00ACB902D0829001D0828082B102D08288FB
:1000DA0001D08298828AA6DF829AACB702D0829631
:1000EA0001D08286ACB502D0829401D08284ACB3AE
:1000FA0002D0829201D08282ACB102D0829001D029
:10010A00828082B102D0828801D08298828A8ADF74
:0E011A00829A82A102D07DDF01D08ADF12001E
:100128000B820BAE9EEF00F003680268016800685E
:080138000A360232FF0E12002C
:0E01400000018291A5C0ACF0B0DF82811200F8
:10014E00086A096A000E076203642CEF01F0025080
:10015E0006180A6E075003267E0ED8A0BDEF00F0DB
:10016E00035ED8B030EF01F0C1EF00F0035ED8A00F
:10017E0034EF01F0028E068E02C00EF001C00BF0BD
:10018E0000C00DF000500402F4CF0CF00150050237
:10019E00F4CF00F0F3CF08F00402F3500C26F45025
:1001AE000822000E00220D500502F3500C26F450CA
:1001BE000822000E002202500402F3500826F450CA
:1001CE00002202500502016A000E0122F3500026A1
:1001DE00F45001220D500602F3500826F45000226E
:1001EE00026A000E012202220B500602F350002674
:1001FE00F4500122000E02220E500602F350012688
:10020E00F450022202BE14EF01F008360036013619
:10021E0002360306D8B434EF01F027EF01F0D88090
:10022E00800E08640030000E002201220222D8A0A7
:10023E0027EF01F0023201320032034A30EF01F0B3
:10024E000AAE029E000E36EF01F0010E05DF36EF0C
:10025E0001F0020E62DF36EF01F0040EECDE12004A
:0C026E001A0E0D6E0D2EFED700001200BF
:0C027A003A0E0D6E0D2EFED70000120093
:100286000C6A0E6A0250D8A45CEF01F001C002F0BD
:1002960000C001F0006A0E860250D8A45CEF01F09F
:1002A60001C002F0016A0E960E880250D8B46EEFB5
:1002B60001F00E50035ED8A4D8A073EF01F0D890D9
:1002C60002BE78EF01F0003601360236032E63EFE8
:1002D60001F073EF01F0010E0C6EC2DE7BEF01F050
:1002E600020E0C6EACDE7BEF01F0040E0C6EB4DE7B
:0202F6001200F4
:1002F8000001A56BA76BA86B100EA96F040EA85D73
:100308001DE2F00E816EA91D936E8DDE8CDE0F0E40
:100318008114006E00C0A6F000520AE0A7C0A5F044
:10032800A65304E0A633A69FA52BFAD7040EA86F00
:10033800A937A991040EA727A82BE0D7A5C000F0DC
:020348001200A1
:08034A000B6A0B86FF0E120086
:100352000A6A0350D8A40A800750D8A40A820A5015
:10036200D8B40CEF02F0030AD8B4C5EF01F00AB01A
:10037200C0EF01F006AE0AEF02F008EF02F002AEA3
:1003820008EF02F00AEF02F00250800B0A6E029EA2
:100392000650800B069E0A18D8B4D6EF01F00A5018
:1003A200D8B408EF02F00AEF02F00750035CD8B4A9
:1003B200E0EF01F0D8A0FCEF01F002EF02F00650EE
:1003C200025CD8B4EAEF01F0D8A0FCEF01F002EF32
:1003D20002F00550015CD8B4F4EF01F0D8A0FCEFB4
:1003E20001F002EF02F00450005CD8B40CEF02F00E
:1003F200D8B002EF02F00A52D8B40AEF02F008EFC6
:1004020002F00A52D8B408EF02F00AEF02F0D880E4
:0E0412001200D8901200D880D8841200120078
:10042000A5C004F0A6C005F004C002F005C003F0AA
:10043000044A052AA7C000F0A8C001F00001A74B9C
:10044000A82B00C0E9FF01C0EAFF02C0E1FF03C022
:10045000E2FFEECFE6FF02C0E9FF03C0EAFFEE5283
:0E04600001E0E2D7A5C000F0A6C001F0120036
:10046E00086A080E0C6E003408360450085ED8B0C8
:0E047E0002D00826D89000360C2EF5D71200BA
:10048C000001A96B050EA95D0AE2A951A725E16E31
:10049C00000EA821E26E200EE66EA92BF3D7A9510F
:1004AC00A725E16E000EA821E26EE66AA907A95104
:1004BC00A725AA6F000EA821AB6F0A0E046E000EC2
:1004CC00056EA5C000F0A6C001F0CEDD08C000F09E
:1004DC0009C001F0300E0026AAC0E1FFABC0E2FF5C
:1004EC0000C0E6FF0A0E046E000E056EA5C000F0FB
:1004FC00A6C001F0B9DD00C0A5F001C0A6F0000E49
:10050C00011802E1000E001801E102D0A907CFD7B3
:02051C001200CB
:10051E000CB0D1EF02F00CA277EF03F00E6A000ED2
:10052E000264E8EF02F0F00E0214D8A4B3EF02F06A
:10053E00023A01380F0B02260138F00B016E00381B
:10054E000F0B01260038F00B006E08380F0B00263B
:10055E000838F00B086E0E84D89002BECCEF02F075
:10056E0008360036013602360E2A02BECCEF02F0F5
:10057E0008360036013602360E2A02BECCEF02F0E5
:10058E0008360036013602360E2A0E5003646DEF21
:10059E0003F0035E0BBC08AE72EF03F0D880800E42
:1005AE0008640030000E002201220222D8A072EF51
:1005BE0003F0023201320032034A77EF03F072EF9A
:1005CE0003F001C002F000C001F008C000F0086A9C
:1005DE00000E0E8602641FEF03F0F00E0214D8A474
:1005EE0007EF03F0023A01380F0B02260138F00B29
:1005FE00016E00380F0B01260038F00B006E0E84D2
:10060E00D89002BECCEF02F00036013602360E2A2A
:10061E0002BECCEF02F00036013602360E2A02BEC2
:10062E00CCEF02F00036013602360E2ACCEF02F085
:10063E0001C002F000C001F0006A000E0E960E8896
:10064E0002644CEF03F0F00E0214D8A437EF03F05F
:10065E00023A01380F0B02260138F00B016E0E84A0
:10066E00D89002BECCEF02F0013602360E2A02BE40
:10067E00CCEF02F0013602360E2A02BECCEF02F0AB
:10068E00013602360E2ACCEF02F001C002F0016AEA
:10069E00000E0E8602647CEF03F0F00E0214D8A456
:1006AE005BEF03F0023A0E84D89002BECCEF02F05C
:1006BE0002360E2A02BECCEF02F002360E2A02BE1F
:1006CE00CCEF02F002360E2ACCEF02F0010E0C6EC9
:1006DE00B2DC7FEF03F0020E0C6EBADC7FEF03F09C
:1006EE00040E0C6E1ADD7FEF03F0080E0C6EB4DCF8
:0206FE001200E8
:10070000FBDD00C097F00F0E8114006E02E0AFDD3C
:08071000FAD797C000F01200B7
:10071800949A94989490949294949496829A8298A5
:10072800829682948292829075DC74DC73DC828279
:100738008280828A78DC829A6DDC828A74DC829A72
:1007480069DC828A70DC829A65DC8290828A6BDC42
:10075800829A60DC828A67DC829A82928286828AA6
:1007680062DC829A57DC82968280828A5CDC829A7A
:100778008290828A58DC829A4DDC828A54DC829A82
:100788008280828A50DC829A45DC8290828A4BDCA5
:10079800829A8286828482828280828A44DC829AD9
:0807A80039DC0001828112001E
:1007B00010D0800E0001976F1AD0C00E976F17D01F
:1007C000940E976F14D0D40E976F11D0800E976F40
:1007D0000ED000019751010AECE09751020AEDE0BA
:1007E0009751030AEDE09751040AEDE0EFD7980521
:1007F000006E9751002600C097F000C0ACF055DCA9
:1008000082919B6B9B519925E96E000E9A21EA6EAD
:10081000EE520BE09B519925E96E000E9A21EA6E8B
:0E082000EECFA5F08DDC9B2BEDD78281120070
:10082E000900F5CFE6FF0006FBE10106F9E1120033
:06083E00FF0E936E120094
:100844000450000A12E10550000A0FE10650000AA4
:100854000CE10750000A09E1FF0E006EFF0E016E65
:100864007F0E026EFF0E036EA7D0086A096A075056
:10087400D8B4CDEF04F00350D8B4D1EF04F0025053
:1008840006180A6E028E068E0E6A02C008F001C0B7
:100894000CF000C00DF004500D5E0550D8A0053CCE
:1008A4000C5E0650D8A0063C085E086A0C6A0D6A05
:1008B400D8A064EF04F0D89002320132003208323A
:1008C400010E0E6E0750035ED8A071EF04F07E0E89
:1008D4000E240326D8B0D6EF04F077EF04F07E0E92
:1008E4000E240326D8A0DBEF04F0180E0B6E0D3691
:1008F4000C3608360036013602360E360450005ED9
:100904000550D8A0053C015E0650D8A0063C025E06
:1009140006340E120EA092EF04F00D809DEF04F049
:10092400045000260550D8B0053C01260650D8B026
:10093400062802260D900B2E79EF04F0C3EF04F085
:10094400D8900036013602360E360450005E05504B
:10095400D8A0053C015E0650D8A0063C025E0634D1
:100964000E10010B0D26D8B00C2AD8B4082AD8A42E
:10097400C3EF04F008320C320D32032AD8B4D6EF98
:1009840004F00AAE089E0850026E0C50016E0D5021
:10099400006EDEEF04F0010ED6DCDEEF04F0020E92
:1009A40033EC00F0DEEF04F0040E94EC00F0DEEF24
:0A09B40004F0080E22EC00F012001F
:1009BE000050086E0150006E016A026A036A0B6AEB
:1009CE000C6A960E036E0A6A00C001F008C000F0B1
:0809DE00086A026A51DC1200F4
:1009E6000001A36BA46B97C09FF098C0A0F099C0BC
:1009F600A1F09AC0A2F0A251FF0A08E1A151FF0A94
:100A060005E1A051FF0A02E19F51FF0A0CE19BC0DC
:100A1600A5F09CC0A6F06C0EA76F000EA86FFDDCBB
:100A2600030E006EE9D1010E9D6FA1AF0ED0800EB0
:100A3600A119006E00C0A1F09D2B9BC0E1FF9CC0D8
:100A4600E2FF2D0EE66E9B4B9C2B000E006EA2194C
:100A560008E10050A11905E10050A01902E19F51DB
:100A6600000A0BE19BC0A5F09CC0A6F06A0EA76F1A
:100A7600000EA86FD2DC006ABFD1A251FF0A08E1BE
:100A8600A151000A05E1A051000A02E19F51000AA6
:100A96000CE19BC0A5F09CC0A6F07E0EA76F000ED1
:100AA600A86FBBDC9DC000F0A7D1000E046E000E3F
:100AB600056E000E066E7F0E076E9FC000F0A0C08A
:100AC60001F0A1C002F0A2C003F040DC010ED8B0D4
:100AD600000E006E00521CE09FC000F0A0C001F0A6
:100AE600A1C002F0A2C003F0000E046E000E056E57
:100AF600200E066E820E076EA7EC00F000C09FF077
:100B060001C0A0F002C0A1F003C0A2F0A407CDD797
:100B1600000E046E000E056E200E066E820E076E27
:100B26009FC000F0A0C001F0A1C002F0A2C003F077
:100B36000DDC000ED8B0010E006E00521CE09FC006
:100B460000F0A0C001F0A1C002F0A2C003F0CD0EDB
:100B5600046ECC0E056E4C0E066E7B0E076EA7EC71
:100B660000F000C09FF001C0A0F002C0A1F003C0D9
:100B7600A2F0A42BCDD7FF0E9F15086EFF0EA01571
:100B8600096E7F0EA1150A6E000EA2150B6E08C027
:100B960004F009C005F00AC006F00BC007F00436E1
:100BA6000490053606360736000E9F15006E000EB9
:100BB600A015016E000EA115026EFF0EA215036EA2
:100BC60000C09FF001C0A0F002C0A1F003C0A2F0D7
:100BD60004509F11006E0550A011016E0650A11120
:100BE600026E0750A211036E00C09FF001C0A0F074
:100BF60002C0A1F003C0A2F07F0EA25D006E00C08D
:100C06009EF0010EA26F00C004F09FC000F0A0C0CD
:100C160001F0A1C002F0A2C003F0045007E00036C4
:100C26000090013602360336FF0FF8D700C09FF05A
:100C360001C0A0F002C0A1F003C0A2F09BC0E1FF7A
:100C46009CC0E2FFA251300FE66E9B4B9C2B800EA0
:100C5600A419006E800E010A005C08E3800E060AE5
:100C6600006E800EA419005C01E30AD09BC0E1FF70
:100C76009CC0E2FF2E0EE66E9B4B9C2B010EA36FD3
:100C8600060E9E6F9E51000A54E0A26B9FC000F0B4
:100C9600A0C001F0A1C002F0A2C003F0003600908F
:100CA6000136023603360036009001360236033628
:100CB6009F510026A0510122A1510222A2510322D6
:100CC60000C09FF001C0A0F002C0A1F003C0A2F0D6
:100CD6009FC000F0A0C001F0A1C002F0A2C003F0C6
:100CE6000036009001360236033600C09FF001C080
:100CF600A0F002C0A1F003C0A2F09BC0E1FF9CC01F
:100D0600E2FFA251300FE66E9B4B9C2BA351000ACB
:100D16000EE1A407A451000A0AE19BC0E1FF9CC0B2
:100D2600E2FF2E0EE66E9B4B9C2B010EA36F9E07D9
:100D3600A9D7FF0E9B25E96EFF0E9C21EA6EEE50A9
:100D4600300A05E1010E9B5F000E9C5BF2D7FF0E99
:100D56009B25E96EFF0E9C21EA6EEE502E0A04E1F9
:100D6600010E9B5F000E9C5BA451000A3FE09BC0F6
:100D7600E1FF9CC0E2FF650EE66E9B4B9C2B800E4E
:100D8600A419006E800E000A005C0BE29BC0E1FF16
:100D96009CC0E2FF2D0EE66E9B4B9C2BA4510008D7
:100DA600A46FA4C09EF0A45109080FE20A0E046EB7
:100DB6009EC000F037EC02F09BC0E1FF9CC0E2FF52
:100DC6000050300FE66E9B4B9C2B0A0E046E9EC0A5
:100DD60000F037EC02F008C000F09BC0E1FF9CC0B9
:100DE600E2FF0050300FE66E9B4B9C2B9BC0E1FF51
:0A0DF6009CC0E2FFE66A006A1200EA
:100E000003500718D8A414EF07F002500618D8A40E
:100E100014EF07F001500518D8A414EF07F00050A4
:0E0E20000418D8B4D8841200D894120012001E
:100E2E0000C008F00B6A0C6A9E0E036E0A6A026A14
:0E0E3E00016A006A020E0C6E8FEC02F01200C8
:100E4C000001996B9A6B97C003F098C004F097C09F
:100E5C0005F098C006F003C0E9FF04C0EAFFEE50AD
:100E6C00200A04E199519A1101E110D0010E996FF9
:100E7C00000E9A6F03C0E9FF04C0EAFF05C0E1FF52
:100E8C0006C0E2FFEECFE6FF054A062A03C001F0DA
:100E9C0004C002F0034A042A01C0E9FF02C0EAFFC1
:100EAC00EE50000AD8E197C000F098C001F0120093
:100EBC0000019D6B9E6B97C09FF098C0A0F0800EB8
:100ECC009819006E800E005C02E1000E975D0BE23B
:100EDC00010E9D6F000E9E6F975100089F6F98C07A
:100EEC00A0F0000EA0579FC0A5F0A0C0A6F099C01E
:100EFC00A7F09AC0A8F046EC02F0060E9B6F000E0D
:100F0C009C6F000E006E9C51005C02E19B5100082E
:100F1C0019E29B519925E16E9C519A21E26E010ECA
:100F2C009B5D006E000E9C59016E00509925E96E78
:100F3C0001509A21EA6EEECFE6FF010E9B5F000E88
:100F4C009C5BDFD799C0E1FF9AC0E2FF200EE66EF2
:100F5C009D519E111AE09B6B9C6B9B519925E96EE0
:100F6C009C519A21EA6EEE50200A03E19B4B9C2B7C
:100F7C00F4D7010E9B5F000E9C5B9B519925E16E93
:0C0F8C009C519A21E26E2D0EE66E1200C0
:100F98000001996B99519725E96E000E9821EA6E28
:100FA800EE520CE099519725E96E000E9821EA6EF1
:0E0FB800EECFA5F0A0EC00F0992BECD71200C4
:100FC600C26A070EC012C08E97C000F000360090AD
:100FD600003600900050C212C2803DEC01F0C28281
:100FE600C2A201D0FDD7C4CF01F0006AC3500012DF
:080FF600000E0112C29012006E
:100FFE0010D0800E0001976F1AD0C00E976F17D0C9
:10100E00940E976F14D0D40E976F11D0800E976FE9
:10101E000ED000019751010AECE09751020AEDE063
:10102E009751030AEDE09751040AEDE0EFD79805CA
:10103E00006E9751002600C097F0828100C0ACF080
:10104E0055EC00F0829199C0ACF055EC00F0828125
:02105E0012007E
:1010600001EC0AF00F013A6B396B3B6B9280946A8A
:10107000959095921FEC04F08CEC03F0010EAC6F90
:1010800055EC00F00C0EAC6F55EC00F0010E976FB4
:10109000040E986F740E996F000E9A6FD8EC03F0DF
:1010A000020E976F020E986F3C0E996F000E9A6FAA
:1010B000D8EC03F0520E0B6E2B0E0C6E000E0D6E64
:1010C0000D2EFED70C2EFCD70B2EFAD700008390E6
:1010D0008392010EAC6F55EC00F0010E976F010E7C
:1010E000986F490E996F000E9A6FD8EC03F0926BCF
:1010F000020E976F010E986F580E996F000E9A6F3F
:10110000D8EC03F080EC03F000C083F00052FAE06A
:1011100083510F0A01E123D08351030804E2080E32
:10112000835DD8A083078351080805E20C0E835D18
:1011300002E2020E835F83510E0AD8B4836B83519F
:101140000D0A01E1C6D7300E8325A56FA0EC00F093
:101150000A0E9203F3CF92F083519227D3D7010E58
:10116000AC6F55EC00F0010E976F010E986F150EE5
:10117000996F000E9A6FD8EC03F092C097F0000EB2
:10118000986F840E996F000E9A6F98DE840E976F99
:10119000000E986F5BDE00C097F0000E986FFCDECB
:1011A000020E976F010E986F200E996F000E9A6FC6
:1011B000D8EC03F0836B83510F0A07E080EC03F057
:1011C00000C083F00052FAE0F6D7010EAC6F55EC88
:1011D00000F0010E976F010E986F310E996F000E9F
:1011E0009A6FD8EC03F0010E976F0F0E986FDF0E19
:1011F000996F05DF010E976F100E986F430E996F70
:10120000FEDE976BE0DEDFEC04F0000E046E400EB5
:10121000056E1C0E066E8B0E076EA7EC00F0000E1E
:10122000046E000E056E000E066E890E076E22EC2F
:1012300004F0000E046E000E056E200E066E820E87
:10124000076E22EC04F000C093F001C094F002C0DD
:1012500095F003C096F092C097F0000E0001986FD1
:10126000840E996F000E9A6F29DE840E976F000E20
:10127000986FECDD010E976F0B0E986F00C099F020
:10128000000E9A6FD8EC03F0020E976F010E986F64
:10129000630E996F000E9A6FD8EC03F093C097F02D
:1012A00094C098F095C099F096C09AF0840E9B6F08
:1012B000000E9C6FF3EC04F0886B020E976F070E24
:1012C000986F840E996F000E9A6FD8EC03F0020E9F
:1012D000976F0C0E986F700E996F000E9A6FD8EC86
:1012E00003F092C000F0A3DD00C004F001C005F0DF
:1012F00002C006F003C007F093C000F094C001F0F4
:1013000095C002F096C003F0A9EC01F0010ED8B030
:10131000000E006E005202E08380839292C000F0C3
:1013200086DD93C004F094C005F095C006F096C029
:1013300007F0A9EC01F0010ED8B0000E006E0052CB
:1013400002E08390838292C000F071DD93C004F0CC
:1013500094C005F095C006F096C007F051DD010E6F
:10136000D8A4000E006E005202E083908392020E19
:101370000A6E960E0B6ED80E0C6E080E0D6E0D2EAC
:10138000FED70C2EFCD70B2EFAD70A2EF8D700006A
:0413900038D7FFD774
:1014020010EE15F06D0E006E010E016E940EF66E6A
:0E141200130EF76E000EF86E17EC04F01200C9
:0B13940054656D70205265663A200021
:10139F005072657373202320746F20436F6E742E09
:0113AF00003D
:0B13B00054656D70205265663A200005
:0D13BB0054656D7020436F6E74726F6C008E
:0F13C800456E7465722054656D70205265660025
:0B13D70054656D70205265663A2000DE
:0713E20054656D703D200011
:0213E9003000D2
:0413EB004E614E0001
:0413EF00202020009A
:0A13F3004175746F6D617469630049
:0413FD00494E46000F
:020000040030CA
:0D000100231F3CFFBF81FF0FC00FE00F4029
:00000001FF
